:020000040800F2
:1000000000C00020310A00088702000889020008A9
:100010008B0200088D0200088F020008000000001B
:100020000000000000000000000000009102000835
:1000300093020008000000009502000897020008E3
:10004000790A0008790A0008790A0008790A000884
:10005000790A0008790A0008790A0008790A000874
:10006000790A0008790A0008790A0008790A000864
:10007000790A0008790A0008790A0008790A000854
:10008000790A0008790A0008790A0008790A000844
:10009000790A0008790A0008790A0008790A000834
:1000A000790A0008790A0008790A0008790A000824
:1000B000790A0008790A0008790A0008790A000814
:1000C000790A0008790A0008790A0008790A000804
:1000D000790A0008790A0008790A0008790A0008F4
:1000E000790A0008790A0008790A0008790A0008E4
:1000F000790A0008790A0008790A0008790A0008D4
:10010000790A0008790A0008790A0008790A0008C3
:10011000790A0008790A0008790A0008790A0008B3
:10012000790A0008790A0008790A0008790A0008A3
:1001300000000000000000000000000000000000BF
:1001400000000000000000000000000000000000AF
:10015000000000000000000000000000000000009F
:10016000000000000000000000000000000000008F
:10017000000000000000000000000000000000007F
:10018000000000000000000000000000000000006F
:10019000000000000000000000000000000000005F
:1001A000000000000000000000000000000000004F
:1001B000000000000000000000000000000000003F
:1001C000000000000000000000000000000000002F
:1001D000000000000000000000000000000000001F
:0401E0005FF8E0F1F3
:1001E40010B5054C237833B9044B13B10448AFF36D
:1001F40000800123237010BD0C00002000000000CB
:10020400D40A000808B5034B1BB103490348AFF3F4
:10021400008008BD0000000010000020D40A00087F
:1002240072B6FEE700B591B02422002107A800F0C1
:1002340047FC002301930293039304930593022341
:10024400069301230A9310230B9306A800F0A8F841
:1002540068B90F2301930021029103910491059140
:1002640001A800F0CFFA20B911B05DF804FBFFF744
:10027400D7FFFFF7D5FF08B500F058F8FFF7D2FF16
:10028400FEE7FEE7FEE7FEE7FEE7FEE7704770479E
:10029400704708B500F05CF808BD000082B00E4B52
:1002A4009A6942F001029A619A6902F0010200928D
:1002B400009ADA6942F08052DA61DB6903F0805314
:1002C4000193019B054A536823F0E06343F0806384
:1002D400536002B0704700BF0010024000000140AC
:1002E40010B504460E4B18784FF47A73B3FBF0F351
:1002F4000C4A1068B0FBF3F000F080FB68B90F2CD7
:1003040001D901200AE0002221464FF0FF3000F01D
:1003140041FB054B1C60002000E0012010BD00BF24
:1003240000000020080000200400002008B5074A4F
:10033400136843F010031360032000F019FB0F202F
:10034400FFF7CEFFFFF7AAFF002008BD0020024000
:10035400034A1168034B1B780B441360704700BFBA
:100364002800002000000020014B1868704700BFDF
:100374002800002082B0084B1B68084AA2FB032314
:100384005B0A00FB03F3019300BF019B5A1E019219
:10039400002BF9D102B0704708000020D34D621041
:1003A400002800F0F18170B582B00446036813F0B0
:1003B400010F2CD0AA4B5B6803F00C03042B1DD057
:1003C400A74B5B6803F00C03082B12D06368B3F5EA
:1003D400803F41D0002B55D103F1804303F5043312
:1003E4001A6822F480321A601A6822F480221A6091
:1003F40037E09B4B5B6813F4803FE7D0984B1B6856
:1004040013F4003F03D06368002B00F0BF8123681E
:1004140013F0020F75D0924B5B6813F00C0F5FD092
:100424008F4B5B6803F00C03082B54D02369002B1B
:1004340000F089808B4B01221A60FFF795FF054677
:10044400874B1B6813F0020F74D1FFF78DFF401B1D
:100454000228F5D903209EE1814A136843F48033CE
:100464001360636843B3FFF77FFF05467C4B1B684B
:1004740013F4003FCBD1FFF777FF401B6428F5D975
:10048400032088E1B3F5A02F09D0754B1A6822F434
:1004940080321A601A6822F480221A60E1E703F1BC
:1004A4008043A3F53C331A6842F480221A601A6828
:1004B40042F480321A60D4E7FFF756FF0546684BD2
:1004C4001B6813F4003FA2D0FFF74EFF401B6428C3
:1004D400F5D903205FE1624B5B6813F4803FA5D13B
:1004E4005F4B1B6813F0020F03D02369012B40F00C
:1004F4004F815B4A136823F0F803616943EAC1033F
:100504001360236813F0080F32D0A369002B45D081
:10051400554B01221A60FFF727FF0546504B5B6AD3
:1005240013F0020F21D1FFF71FFF401B0228F5D95A
:10053400032030E14A4A136823F0F803616943EA6F
:10054400C1031360DDE7474B00221A60FFF70CFF7D
:100554000546434B1B6813F0020FD2D0FFF704FF8C
:10056400401B0228F5D9032015E10120FFF702FF03
:10057400236813F0040F00F09780394BDB6913F004
:10058400805F1DD1364BDA6942F08052DA61DB6953
:1005940003F080530193019B012512E0324B0022AA
:1005A4001A60FFF7E1FE05462D4B5B6A13F0020F5C
:1005B400DED0FFF7D9FE401B0228F5D90320EAE07C
:1005C40000252A4B1B6813F4807F11D0E368012BAC
:1005D40022D0002B38D103F1804303F504331A6A87
:1005E40022F001021A621A6A22F004021A6218E066
:1005F4001E4A136843F480731360FFF7B5FE064682
:100604001A4B1B6813F4807FE0D1FFF7ADFE801B0B
:100614006428F5D90320BEE0114A136A43F00103AC
:100624001362E36873B3FFF79FFE06460C4B1B6A25
:1006340013F0020F37D1FFF797FE801B41F2883386
:100644009842F3D90320A6E0052B11D0044B1A6A73
:1006540022F001021A621A6A22F004021A62E0E726
:1006640000100240000042428004424200700040F8
:100674004D4B1A6A42F004021A621A6A42F00102ED
:100684001A62CEE7FFF770FE0646474B1B6A13F06B
:10069400020F08D0FFF768FE801B41F288339842AE
:1006A400F3D9032077E0E5B9E369002B72D03E4A21
:1006B400526802F00C02082A56D0022B17D03B4B8A
:1006C40000221A60FFF750FE0446374B1B6813F0F4
:1006D400007F47D0FFF748FE001B0228F5D903200E
:1006E40059E0314AD36923F08053D361DCE72F4BBF
:1006F40000221A60FFF738FE05462B4B1B6813F0E7
:10070400007F06D0FFF730FE401B0228F5D90320F6
:1007140041E0236AB3F5803F1AD023494B6823F4A0
:100724007413226A606A024313434B601F4B012215
:100734001A60FFF719FE04461B4B1B6813F0007F79
:100744000ED1FFF711FE001B0228F5D9032022E089
:10075400154A536823F40033A1680B435360DCE764
:10076400002018E0002016E0012B16D00E4B5B6829
:1007740003F48031226A914211D103F47013626A46
:1007840093420ED1002006E001207047012002E0D0
:10079400012000E0002002B070BD0120FBE7012031
:1007A400F9E70120F7E700BF001002406000424271
:1007B4000F4B5B6803F00C02082A01D00D48704708
:1007C400C3F383420C498A5C13F4803F0BD0084B7B
:1007D4005B68C3F340430949CB5C064800FB02F065
:1007E400B0FBF3F07047064800FB02F0704700BF0F
:1007F4000010024000127A00EC0A0008FC0A00080B
:1008040000093D00002800F0A08070B50D460446A4
:10081400524B1B6803F007038B420BD24F4A1368F9
:1008240023F007030B431360136803F007038B42A1
:1008340040F08D80236813F0020F17D013F0040FDB
:1008440004D0474A536843F4E0635360236813F0C9
:10085400080F04D0424A536843F460535360404A3B
:10086400536823F0F003A1680B435360236813F02B
:10087400010F31D06368012B20D0022B25D0384AD8
:10088400126812F0020F64D035494A6822F003025C
:1008940013434B60FFF768FD0646314B5B6803F07A
:1008A4000C036268B3EB820F16D0FFF75DFD801B6B
:1008B40041F288339842F0D9032045E0284A12686F
:1008C40012F4003FE0D101203EE0254A126812F004
:1008D400007FD9D1012037E0204B1B6803F00703C8
:1008E400AB420AD91D4A136823F007032B43136054
:1008F400136803F00703AB422DD1236813F0040FF0
:1009040006D0174A536823F4E063E1680B4353604D
:10091400236813F0080F07D0114A536823F4605377
:10092400216943EAC1035360FFF742FF0C4B5B6844
:10093400C3F303130B4AD35CD8400B4B18600B4B27
:100944001868FFF7CDFC002070BD0120704701201E
:10095400FAE70120F8E70120F6E700BF0020024093
:1009640000100240000B00080800002004000020D2
:10097400074AD36823F4E0631B041B0C000200F451
:10098400E060034343F0BF6343F40033D360704734
:1009940000ED00E030B4174BDB68C3F30223C3F16E
:1009A4000704042C28BF04241D1D062D18D9033B5D
:1009B4004FF0FF3505FA04F421EA0401994005FAE1
:1009C40003F322EA0303194300280BDB0901C9B22C
:1009D40000F1604000F5614080F8001330BC7047BE
:1009E4000023E5E700F00F000901C9B2024B1954D6
:1009F400F4E700BF00ED00E014ED00E00138B0F1D1
:100A0400807F0AD2064B5860064AF02182F82310F0
:100A14000020986007221A6070470120704700BFC9
:100A240010E000E000ED00E070470000FFF7FCFF7D
:100A34000B480C490C4A002302E0D458C450043338
:100A4400C4188C42F9D3094A094C002301E013600D
:100A54000432A242FBD300F00FF8FFF70CFC7047FE
:100A6400000000200C000020180B00080C000020DF
:100A74002C000020FEE7000070B500260C4D0D4C44
:100A8400641BA410A64209D100F022F800260A4DE6
:100A94000A4C641BA410A64205D170BD55F8043B52
:100AA40098470136EEE755F8043B98470136F2E7DC
:100AB400100B0008100B0008100B0008140B0008A2
:100AC40003460244934200D1704703F8011BF9E73F
:100AD400F8B500BFF8BC08BC9E467047F8B500BF27
:080AE400F8BC08BC9E467047F7
:100AEC0002030405060708090A0B0C0D0E0F101063
:100AFC0001020000000000000000000001020304DD
:040B0C0006070809C7
:040B100009020008CE
:040B1400E5010008EF
:0C0B180001000000100000000024F400A8
:0400000508000A31B4
:00000001FF
